{
  "contractName": "FundRaising",
  "abi": [
    {
      "constant": true,
      "inputs": [
        {
          "name": "",
          "type": "address"
        }
      ],
      "name": "contributors",
      "outputs": [
        {
          "name": "",
          "type": "uint256"
        }
      ],
      "payable": false,
      "stateMutability": "view",
      "type": "function"
    },
    {
      "constant": true,
      "inputs": [],
      "name": "deadline",
      "outputs": [
        {
          "name": "",
          "type": "uint256"
        }
      ],
      "payable": false,
      "stateMutability": "view",
      "type": "function"
    },
    {
      "constant": true,
      "inputs": [],
      "name": "goal",
      "outputs": [
        {
          "name": "",
          "type": "uint256"
        }
      ],
      "payable": false,
      "stateMutability": "view",
      "type": "function"
    },
    {
      "constant": true,
      "inputs": [],
      "name": "noOfContributors",
      "outputs": [
        {
          "name": "",
          "type": "uint256"
        }
      ],
      "payable": false,
      "stateMutability": "view",
      "type": "function"
    },
    {
      "constant": true,
      "inputs": [
        {
          "name": "",
          "type": "uint256"
        }
      ],
      "name": "requests",
      "outputs": [
        {
          "name": "description",
          "type": "string"
        },
        {
          "name": "recipient",
          "type": "address"
        },
        {
          "name": "value",
          "type": "uint256"
        },
        {
          "name": "completed",
          "type": "bool"
        },
        {
          "name": "noOfVoters",
          "type": "uint256"
        }
      ],
      "payable": false,
      "stateMutability": "view",
      "type": "function"
    },
    {
      "constant": true,
      "inputs": [],
      "name": "minimumContribution",
      "outputs": [
        {
          "name": "",
          "type": "uint256"
        }
      ],
      "payable": false,
      "stateMutability": "view",
      "type": "function"
    },
    {
      "constant": true,
      "inputs": [],
      "name": "raisedAmount",
      "outputs": [
        {
          "name": "",
          "type": "uint256"
        }
      ],
      "payable": false,
      "stateMutability": "view",
      "type": "function"
    },
    {
      "constant": true,
      "inputs": [],
      "name": "admin",
      "outputs": [
        {
          "name": "",
          "type": "address"
        }
      ],
      "payable": false,
      "stateMutability": "view",
      "type": "function"
    },
    {
      "inputs": [
        {
          "name": "_goal",
          "type": "uint256"
        },
        {
          "name": "_deadline",
          "type": "uint256"
        }
      ],
      "payable": false,
      "stateMutability": "nonpayable",
      "type": "constructor"
    },
    {
      "anonymous": false,
      "inputs": [
        {
          "indexed": false,
          "name": "sender",
          "type": "address"
        },
        {
          "indexed": false,
          "name": "value",
          "type": "uint256"
        }
      ],
      "name": "ContributeEvent",
      "type": "event"
    },
    {
      "anonymous": false,
      "inputs": [
        {
          "indexed": false,
          "name": "_description",
          "type": "string"
        },
        {
          "indexed": false,
          "name": "_recipient",
          "type": "address"
        },
        {
          "indexed": false,
          "name": "_value",
          "type": "uint256"
        }
      ],
      "name": "createRequestEvent",
      "type": "event"
    },
    {
      "anonymous": false,
      "inputs": [
        {
          "indexed": false,
          "name": "recipient",
          "type": "address"
        },
        {
          "indexed": false,
          "name": "value",
          "type": "uint256"
        }
      ],
      "name": "makePaymentEvent",
      "type": "event"
    },
    {
      "constant": false,
      "inputs": [],
      "name": "contribute",
      "outputs": [],
      "payable": true,
      "stateMutability": "payable",
      "type": "function"
    },
    {
      "constant": true,
      "inputs": [],
      "name": "getBalance",
      "outputs": [
        {
          "name": "",
          "type": "uint256"
        }
      ],
      "payable": false,
      "stateMutability": "view",
      "type": "function"
    },
    {
      "constant": false,
      "inputs": [],
      "name": "getRefund",
      "outputs": [],
      "payable": false,
      "stateMutability": "nonpayable",
      "type": "function"
    },
    {
      "constant": false,
      "inputs": [
        {
          "name": "_description",
          "type": "string"
        },
        {
          "name": "_recipient",
          "type": "address"
        },
        {
          "name": "_value",
          "type": "uint256"
        }
      ],
      "name": "createRequest",
      "outputs": [],
      "payable": false,
      "stateMutability": "nonpayable",
      "type": "function"
    },
    {
      "constant": false,
      "inputs": [
        {
          "name": "index",
          "type": "uint256"
        }
      ],
      "name": "voteRequest",
      "outputs": [],
      "payable": false,
      "stateMutability": "nonpayable",
      "type": "function"
    },
    {
      "constant": false,
      "inputs": [
        {
          "name": "index",
          "type": "uint256"
        }
      ],
      "name": "makePayment",
      "outputs": [],
      "payable": false,
      "stateMutability": "nonpayable",
      "type": "function"
    }
  ],
  "bytecode": "0x6080604052600060065534801561001557600080fd5b50604051604080610fcb83398101806040528101908080519060200190929190805190602001909291905050508160058190555080420160048190555033600160006101000a81548173ffffffffffffffffffffffffffffffffffffffff021916908373ffffffffffffffffffffffffffffffffffffffff160217905550600a6003819055505050610f1f806100ac6000396000f3006080604052600436106100d0576000357c0100000000000000000000000000000000000000000000000000000000900463ffffffff16806312065fe0146100d55780631b16bb5c146101005780631f6d49421461019357806329dcb0cf146101ea57806340193883146102155780634cb6f4a5146102405780634e260f6f1461026d5780635114cb521461029857806381d12c58146102c5578063937e09b1146103b7578063b2d5ae44146103e2578063c59ee1dc146103f9578063d7bb99ba14610424578063f851a4401461042e575b600080fd5b3480156100e157600080fd5b506100ea610485565b6040518082815260200191505060405180910390f35b34801561010c57600080fd5b50610191600480360381019080803590602001908201803590602001908080601f0160208091040260200160405190810160405280939291908181526020018383808284378201915050505050509192919290803573ffffffffffffffffffffffffffffffffffffffff169060200190929190803590602001909291905050506104a4565b005b34801561019f57600080fd5b506101d4600480360381019080803573ffffffffffffffffffffffffffffffffffffffff1690602001909291905050506106f3565b6040518082815260200191505060405180910390f35b3480156101f657600080fd5b506101ff61070b565b6040518082815260200191505060405180910390f35b34801561022157600080fd5b5061022a610711565b6040518082815260200191505060405180910390f35b34801561024c57600080fd5b5061026b60048036038101908080359060200190929190505050610717565b005b34801561027957600080fd5b50610282610858565b6040518082815260200191505060405180910390f35b3480156102a457600080fd5b506102c36004803603810190808035906020019092919050505061085e565b005b3480156102d157600080fd5b506102f060048036038101908080359060200190929190505050610a41565b60405180806020018673ffffffffffffffffffffffffffffffffffffffff1673ffffffffffffffffffffffffffffffffffffffff16815260200185815260200184151515158152602001838152602001828103825287818151815260200191508051906020019080838360005b8381101561037857808201518184015260208101905061035d565b50505050905090810190601f1680156103a55780820380516001836020036101000a031916815260200191505b50965050505050505060405180910390f35b3480156103c357600080fd5b506103cc610b4b565b6040518082815260200191505060405180910390f35b3480156103ee57600080fd5b506103f7610b51565b005b34801561040557600080fd5b5061040e610c96565b6040518082815260200191505060405180910390f35b61042c610c9c565b005b34801561043a57600080fd5b50610443610de0565b604051808273ffffffffffffffffffffffffffffffffffffffff1673ffffffffffffffffffffffffffffffffffffffff16815260200191505060405180910390f35b60003073ffffffffffffffffffffffffffffffffffffffff1631905090565b6104ac610e06565b600160009054906101000a900473ffffffffffffffffffffffffffffffffffffffff1673ffffffffffffffffffffffffffffffffffffffff163373ffffffffffffffffffffffffffffffffffffffff1614151561050857600080fd5b60a0604051908101604052808581526020018473ffffffffffffffffffffffffffffffffffffffff16815260200183815260200160001515815260200160008152509050600781908060018154018082558091505090600182039060005260206000209060060201600090919290919091506000820151816000019080519060200190610596929190610e4e565b5060208201518160010160006101000a81548173ffffffffffffffffffffffffffffffffffffffff021916908373ffffffffffffffffffffffffffffffffffffffff1602179055506040820151816002015560608201518160030160006101000a81548160ff021916908315150217905550608082015181600401555050507fb61911820b0f2d45a16a949c10c8464cdd8b39ce576e5615556813fe846d2aea84848460405180806020018473ffffffffffffffffffffffffffffffffffffffff1673ffffffffffffffffffffffffffffffffffffffff168152602001838152602001828103825285818151815260200191508051906020019080838360005b838110156106b1578082015181840152602081019050610696565b50505050905090810190601f1680156106de5780820380516001836020036101000a031916815260200191505b5094505050505060405180910390a150505050565b60006020528060005260406000206000915090505481565b60045481565b60055481565b600060078281548110151561072857fe5b9060005260206000209060060201905060008060003373ffffffffffffffffffffffffffffffffffffffff1673ffffffffffffffffffffffffffffffffffffffff1681526020019081526020016000205411151561078557600080fd5b600015158160050160003373ffffffffffffffffffffffffffffffffffffffff1673ffffffffffffffffffffffffffffffffffffffff16815260200190815260200160002060009054906101000a900460ff1615151415156107e657600080fd5b60018160050160003373ffffffffffffffffffffffffffffffffffffffff1673ffffffffffffffffffffffffffffffffffffffff16815260200190815260200160002060006101000a81548160ff02191690831515021790555080600401600081548092919060010191905055505050565b60025481565b6000600160009054906101000a900473ffffffffffffffffffffffffffffffffffffffff1673ffffffffffffffffffffffffffffffffffffffff163373ffffffffffffffffffffffffffffffffffffffff161415156108bc57600080fd5b6007828154811015156108cb57fe5b90600052602060002090600602019050600015158160030160009054906101000a900460ff1615151415156108ff57600080fd5b6002805481151561090c57fe5b04816004015411151561091e57600080fd5b8060010160009054906101000a900473ffffffffffffffffffffffffffffffffffffffff1673ffffffffffffffffffffffffffffffffffffffff166108fc82600201549081150290604051600060405180830381858888f1935050505015801561098c573d6000803e3d6000fd5b5060018160030160006101000a81548160ff0219169083151502179055507f38da86d9249276300e7ff0ed0fcd614b11a0eda21c6082534598ac32ba9976418160010160009054906101000a900473ffffffffffffffffffffffffffffffffffffffff168260020154604051808373ffffffffffffffffffffffffffffffffffffffff1673ffffffffffffffffffffffffffffffffffffffff1681526020018281526020019250505060405180910390a15050565b600781815481101515610a5057fe5b9060005260206000209060060201600091509050806000018054600181600116156101000203166002900480601f016020809104026020016040519081016040528092919081815260200182805460018160011615610100020316600290048015610afc5780601f10610ad157610100808354040283529160200191610afc565b820191906000526020600020905b815481529060010190602001808311610adf57829003601f168201915b5050505050908060010160009054906101000a900473ffffffffffffffffffffffffffffffffffffffff16908060020154908060030160009054906101000a900460ff16908060040154905085565b60035481565b60008060045442111515610b6457600080fd5b600554600654101515610b7657600080fd5b60008060003373ffffffffffffffffffffffffffffffffffffffff1673ffffffffffffffffffffffffffffffffffffffff16815260200190815260200160002054111515610bc357600080fd5b3391506000803373ffffffffffffffffffffffffffffffffffffffff1673ffffffffffffffffffffffffffffffffffffffff1681526020019081526020016000205490508173ffffffffffffffffffffffffffffffffffffffff166108fc829081150290604051600060405180830381858888f19350505050158015610c4d573d6000803e3d6000fd5b5060008060003373ffffffffffffffffffffffffffffffffffffffff1673ffffffffffffffffffffffffffffffffffffffff168152602001908152602001600020819055505050565b60065481565b60045442101515610cac57600080fd5b6003543410151515610cbd57600080fd5b60008060003373ffffffffffffffffffffffffffffffffffffffff1673ffffffffffffffffffffffffffffffffffffffff168152602001908152602001600020541415610d17576002600081548092919060010191905055505b346000803373ffffffffffffffffffffffffffffffffffffffff1673ffffffffffffffffffffffffffffffffffffffff16815260200190815260200160002060008282540192505081905550346006600082825401925050819055507f2daf61dec57a2c194e9e87958b1a40a5c236b5e8c6041655d664ddbd16c293203334604051808373ffffffffffffffffffffffffffffffffffffffff1673ffffffffffffffffffffffffffffffffffffffff1681526020018281526020019250505060405180910390a1565b600160009054906101000a900473ffffffffffffffffffffffffffffffffffffffff1681565b60a06040519081016040528060608152602001600073ffffffffffffffffffffffffffffffffffffffff16815260200160008152602001600015158152602001600081525090565b828054600181600116156101000203166002900490600052602060002090601f016020900481019282601f10610e8f57805160ff1916838001178555610ebd565b82800160010185558215610ebd579182015b82811115610ebc578251825591602001919060010190610ea1565b5b509050610eca9190610ece565b5090565b610ef091905b80821115610eec576000816000905550600101610ed4565b5090565b905600a165627a7a723058206d965fe44f4940fe9e86e3bd4dba59552726ecb006ebe2cb03f7580011d09c460029",
  "source": "pragma solidity ^0.4.23;\n\ncontract FundRaising {\n  mapping(address => uint) public contributors;\n  address public admin;\n  uint public noOfContributors;\n  uint public minimumContribution;\n  uint public deadline; // a timestamp in seconds so users can potentially request a refund\n  uint public goal;\n  uint public raisedAmount = 0;\n\n  struct Request{\n    string description;\n    address recipient;\n    uint value;\n    // marks if a specific request has been completed or not\n    bool completed;\n    uint noOfVoters;\n    // registers the voters\n    mapping(address => bool) voters;\n  }\n\n  Request[] public requests;\n\n  event ContributeEvent(address sender, uint value);\n  event createRequestEvent(string _description, address _recipient, uint _value);\n  // triggered when the owner makes a payment\n  event makePaymentEvent(address recipient, uint value);\n\nconstructor(uint _goal, uint _deadline) public {\n  goal = _goal;\n  // campaign deadline will be reached in this no. of seconds from this moment\n  deadline = now + _deadline;\n\n  admin = msg.sender;\n  minimumContribution = 10;\n}\n\nmodifier onlyAdmin() {\n  require(msg.sender == admin);\n  _;\n}\n\n  function contribute() public payable {\n    require(now < deadline);\n    require(msg.value >= minimumContribution);\n\n    // so we only increment the value if it's the first time a user sends to the campaign\n    if(contributors[msg.sender] == 0) {\n      noOfContributors++;\n    }\n\n    contributors[msg.sender] += msg.value;\n    raisedAmount += msg.value;\n\n    emit ContributeEvent(msg.sender, msg.value);\n  }\n\n  // returns the contract balance\n  function getBalance() public view returns(uint) {\n    return address(this).balance;\n  }\n\n  function getRefund() public {\n    require(now > deadline) ;\n    require(raisedAmount < goal);\n    // makes sure the sender actually contributed\n    require(contributors[msg.sender] > 0);\n\n    address recipient = msg.sender;\n    uint value = contributors[msg.sender];\n\n    // transfer value to the recipient\n    recipient.transfer(value);\n    contributors[msg.sender] = 0;\n  }\n\n  function createRequest(string _description, address _recipient, uint _value) public onlyAdmin {\n    // create request in memory\n    Request memory newRequest = Request({\n      description: _description,\n      recipient: _recipient,\n      value: _value,\n      completed: false,\n      noOfVoters: 0\n      });\n\n      // add to an array\n      requests.push(newRequest);\n      emit createRequestEvent(_description, _recipient, _value);\n  }\n\n  function voteRequest(uint index) public {\n    // working directly on an element of array saved in storage, so not a copy\n    Request storage thisRequest = requests[index];\n    // who can vote? only noOfContributors\n    require(contributors[msg.sender] > 0);\n    // make sure user can't vote twice by modifying the value associated from address in the request\n    require(thisRequest.voters[msg.sender] == false);\n\n    thisRequest.voters[msg.sender] = true;\n    thisRequest.noOfVoters++;\n  }\n\n  function makePayment(uint index) public onlyAdmin {\n    Request storage thisRequest = requests[index];\n    // verify it's not been finalized\n    require(thisRequest.completed == false);\n    // more than 50% of contributors must have voted\n    require(thisRequest.noOfVoters > noOfContributors / 2);\n    // transfer money to the recipient\n    thisRequest.recipient.transfer(thisRequest.value);\n\n    thisRequest.completed = true;\n\n    emit makePaymentEvent(thisRequest.recipient, thisRequest.value);\n  }\n\n}\n",
  "sourcePath": "/Users/misty/chaincode-base/truffle/contracts/fundraising.sol",
  "compiler": {
    "name": "solc",
    "version": "0.4.24+commit.e67f0147.Emscripten.clang"
  },
  "schemaVersion": "3.0.0-beta.0",
  "updatedAt": "2018-10-17T17:43:08.204Z"
}